:100000000C9444010C9461010C9461010C94610105
:100010000C9461010C9461010C9461010C946101D8
:100020000C9461010C9461010C9461010C946101C8
:100030000C9461010C9461010C9461010C946101B8
:100040000C9461010C9461010C9461010C946101A8
:100050000C9461010C9461010C9461010C94610198
:100060000C9461010C946101036EDB363D9A999901
:10007000993DABAAAA2A3E000000803F072C7AA532
:10008000BA6CC590DA3B9365FC8BBC53F810FD3C11
:100090005692834DBD879D3AB63DCBC9BF5BBE73BB
:1000A000DA0FC93F05A84CCDB2D44EB93836A902F3
:1000B0000C50B9918688083CA6AAAA2ABE00000066
:1000C000803F6E616E00696E66006364696E6F707A
:1000D000737578585B65666745464700616E006ECC
:1000E00066696E69747900CDCCCC3D0AD7233C1784
:1000F000B7D13877CC2B329595E6241FB14F0A0043
:100100000020410000C84200401C4620BCBE4CCA32
:100110001B0E5AAEC59D74417A696D7574683A209C
:10012000252E326600456C65766174696F6E3A20E3
:10013000252E3266004C61743A252E30326620201E
:100140004C6F6E3A252E3032660054696D653A2048
:10015000253032693A253032693A2530326900203B
:10016000202020506C6561736520576169742020E0
:1001700020200020204E6F20536174656C6C6974E0
:10018000652046697820200025730D0A0000407A1A
:1001900010F35A00A0724E18090010A5D4E8000010
:1001A000E87648170000E40B54020000CA9A3B00AE
:1001B0000000E1F505000080969800000040420F25
:1001C000000000A08601000000102700000000E8E9
:1001D00003000000006400000000000A00000000AE
:1001E000000100000000002C76D888DC674F08234F
:1001F000DFC1DFAE59E1B1B796E5E3E453C63AE6B5
:1002000051997696E8E6C28426EB898C9B62ED4094
:100210007C6FFCEFBC9C9F40F2BAA56FA5F49005E3
:100220005A2AF75C936B6CF9676DC11BFCE0E40D17
:1002300047FEF520E6B500D0ED902E03009435770B
:10024000050080841E080000204E0A000000C80C33
:10025000333333330F986E12831141EF8D2114899C
:100260003BE65516CFFEE6DB18D1844B381BF77CF6
:100270001D901DA4BBE424203284725E228100C93B
:10028000F124ECA1E53D270011241FBECFEFD4E0FF
:10029000DEBFCDBF12E0A6E0B1E001C01D92A334E5
:1002A000B107E1F711E0A0E0B1E0E4EDF5E302C051
:1002B00005900D92A630B107D9F70E9440080C9422
:1002C000E81A0C9400009C01C0978A30910520F434
:1002D0009093090180930801C901815490400697C9
:1002E00030F4275330403093090120930801809166
:1002F000080190910901089520913402E4E1F1E0B0
:1003000090E040E050E010C08081843211F4892FE9
:1003100005C08A3211F4892F02C08927922F4F5FBE
:100320005F4F3196292F982F4436510568F320935B
:1003300034025093070140930601332727FD30957F
:10034000C901089520910702309108028091350279
:1003500090913602281B390B30931402209313021C
:1003600037FF07C0285E3F4F3093140220931302DB
:1003700008952931310534F028513040309314026A
:10038000209313020895FC01909117018081981722
:10039000E1F49091180181819817B9F490911901B5
:1003A0008281981791F4A4E1B1E0ECE8F1E020E05B
:1003B00030E004C08D9181932F5F3F4F243631058B
:1003C000C8F3309307012093060108952F923F92BE
:1003D0004F925F926F927F928F929F92AF92BF9255
:1003E000CF92DF92EF92FF920F931F93DF93CF9301
:1003F000CDB7DEB768970FB6F894DEBF0FBECDBF9E
:1004000084E090E090933602809335026091FA0187
:100410007091FB01882777FD8095982F0E947E14AC
:1004200020E030E042EA52E40E9460132FE33EE70E
:100430004CE75FE30E940F1625E33AEF4EE85CE3DA
:100440000E940F167B018C01A80197010E94611385
:100450000E9492165B016C01C801B7010E94E01373
:100460003B014C01C801B7010E9492161B012C01EF
:1004700060911A0270911B0280911C0290911D02E2
:1004800020E030E040E752E40E94611320E030E0D9
:1004900040E850E40E940F16698B7A8B8B8B9C8B03
:1004A000C601B50125E83BEE4DE151E40E940F166F
:1004B0007B018C01C401B30123EC35EF40EF50EC1C
:1004C0000E940F169B01AC01C801B7010E94611385
:1004D0007B018C01C201B10120E030E040EC5FEB18
:1004E0000E940F169B01AC01C801B7010E94611365
:1004F0009B01AC0169897A898B899C890E9461136F
:100500003B014C010E94B9145B016C010E94A201E5
:100510006091130270911402882777FD8095982FBF
:100520000E947E147B018C0160930A0170930B0181
:1005300080930C0190930D01609137027091380205
:10054000882777FD8095982F0E947E14A60195013B
:100550000E9461130E944B142B018DE34816510435
:10056000A4F0C801B70120E030E040E85FE30E945A
:10057000611360930A0170930B0180930C019093B7
:100580000D01A4ECBFEF4A0E5B1EC401B301A6012E
:1005900095010E94601320E030E040E752E40E94A1
:1005A0000F160E9472167B018C01609112017091EE
:1005B0001301882777FD8095982F0E947E14A8014B
:1005C00097010E9461130E944B146B016D337105FA
:1005D0002CF10894411C511CE4ECFFEFCE0EDF1E01
:1005E000FDE34F165104D4F060910A0170910B01A4
:1005F00080910C0190910D0120E030E040E85FE334
:100600000E94611360930A0170930B0180930C01A7
:1006100090930D0184EC9FEF480E591EB20188277C
:1006200077FD8095982F0E947E1420E030E040E70F
:1006300052E40E94E31320910A0130910B01409192
:100640000C0150910D010E9461137B018C01B601D8
:10065000882777FD8095982F0E947E1420E030E057
:1006600041E655E40E94E3139B01AC01C801B701C8
:100670000E9461136D8B7E8B8F8B988F60930A0124
:1006800070930B0180930C0190930D016091FA011E
:100690007091FB01882777FD8095982F0E947E142A
:1006A00020E030E042EA52E40E9460132FE33EE78C
:1006B0004CE75FE30E940F1625E33AEF4EE85CE358
:1006C0000E940F160E9492162DEE3FEB4BEC5EE35C
:1006D0000E940F160E94C51320EE3EE245E652E44A
:1006E0000E940F1625E33AEF4EE85CE30E940F16D6
:1006F0005B016C01C6010E9492166D877E878F8711
:10070000988B8091160290911702A0911802B091D7
:10071000190289879A87AB87BC87BC01CD0125E385
:100720003AEF4EE85CE30E940F167B018C01C80192
:100730000E9492163B014C01B501C6010E94E013D4
:100740006D837E838F839887B701C8010E94E01371
:1007500069837A838B839C836D897E898F89988D49
:1007600020E030E040E451E40E94601320E030E0FB
:1007700040E751E40E940F1625E33AEF4EE85CE3B0
:100780000E940F160E94E0131B012C016D857E85CF
:100790008F859889A40193010E940F167B018C011B
:1007A0006D817E818F81988529813A814B815C8121
:1007B0000E940F16A20191010E940F169B01AC012D
:1007C000C801B7010E9461130E94C51320EE3EE2EA
:1007D00045E652E40E940F167B018C0160932C02C7
:1007E00070932D0280932E0290932F0269857A8553
:1007F0008B859C8525E33AEF4EE85CEB0E940F1653
:100800000E9492165B016C01C801B70125E33AEF23
:100810004EE85CE30E940F160E94E0133B014C017E
:100820006D857E858F85988929813A814B815C8190
:100830000E940F167B018C016D817E818F819885CE
:10084000A60195010E940F16A20191010E940F16A8
:100850009B01AC01C801B7010E946113A40193017F
:100860000E94E3130E94521320EE3EE245E652E45A
:100870000E940F167B018C0160930E0170930F0193
:1008800080931001909311016D897E898F89988DD5
:1008900020E030E040E451E40E940B16181684F486
:1008A00060E070E084EB93E4A80197010E9460137C
:1008B00060930E0170930F018093100190931101CA
:1008C00068960FB6F894DEBF0FBECDBFCF91DF9113
:1008D0001F910F91FF90EF90DF90CF90BF90AF905E
:1008E0009F908F907F906F905F904F903F902F9050
:1008F00008950F931F9304C00E948C0B80931502E0
:10090000809115028432C1F700E010E0F801EC5E3E
:10091000FE4F8091150280830E948C0B80931502FC
:10092000809115028823C1F30F5F1F4F8A3271F740
:10093000F801EC5EFE4F80830F5F1F4F0E948C0B0F
:10094000809315020C5E1E4FF8018083992787FD66
:1009500090950E94630190930901809308010E9481
:100960008C0B80931502F80181830091080110918E
:10097000090194E0000F111F9A95E1F7992787FD6F
:1009800090950E946301080F191F109309010093AD
:1009900008011F910F910895AF92BF92CF92DF92FD
:1009A000EF92FF920F931F93DF93CF9300D000D06D
:1009B00000D0CDB7DEB708C00E94790484E191E091
:1009C0000E947C018093340280911701823551F09E
:1009D000809118018D3409F4F8C080911901833495
:1009E00059F7F3C0809118018D3409F0EEC0809161
:1009F0001901833409F0E9C0A4E1B1E060E070E0DE
:100A000040E050E020E030E06E010894C11CD11CB1
:100A100012C06930710539F4F601E40FF51F8C91AD
:100A200080834F5F5F4F8C918C3211F46F5F7F4FEB
:100A30002F5F3F4F11962436310558F3309307014D
:100A4000209306018A81682F772767FD7095605192
:100A5000724089812AE08202C0011124680F791F47
:100A60008E81A82EBB24A7FCB09480EF9DEFA80E2A
:100A7000B91E8D818202C0011124A80EB91E8C817D
:100A8000482F552747FD5095405152408B81820297
:100A9000C0011124480F591F4630510509F442C0C6
:100AA00047305105B4F44330510581F144305105CC
:100AB00044F44130510521F14230510509F052C052
:100AC00021C04430510531F14530510509F04AC08B
:100AD00025C04930510591F14A3051053CF4473069
:100AE000510521F148305105E9F524C04B3051053D
:100AF00071F14B30510534F14C30510599F52CC052
:100B00006B0130C08FE1C82ED12C2AC00BE3C02E60
:100B1000D12C26C01AE5C12ED12C22C0B8E7CB2E8D
:100B2000D12C1EC0A7E9CA2ED12C1AC0F5EBCF2EAE
:100B3000D12C16C0E4EDCE2ED12C12C053EFC52E11
:100B4000D12C0EC041E1C42E41E0D42E09C030E3C7
:100B5000C32E31E0D32E04C02EE4C22E21E0D22ECB
:100B6000C60ED71EC50164E070E00E94F516882706
:100B700077FD8095982F0E947E147B018C010E9446
:100B8000B9149B01AC01C801B7010E94DC13882392
:100B9000B9F0C50160E971E00E94F516882777FD7C
:100BA0008095982F0E947E147B018C010E94B914BD
:100BB0009B01AC01C801B7010E94DC13882319F422
:100BC0000894C11CD11CC60100C026960FB6F8942B
:100BD000DEBF0FBECDBFCF91DF911F910F91FF9070
:100BE000EF90DF90CF90BF90AF900895EF92FF927B
:100BF0000F931F9308C00E94790484E191E00E9442
:100C00007C0180933402809117018734A1F7809191
:100C10001801873481F780911901813461F760915F
:100C20003501772767FD709560537040882777FD01
:100C30008095982F0E947E1420E030E040E251E43D
:100C40000E940F167B018C0160913601772767FDAA
:100C5000709560537040882777FD8095982F0E948B
:100C60007E149B01AC01C801B7010E9461137B0196
:100C70008C0160913801772767FD70956053704053
:100C8000882777FD8095982F0E947E142DEC3CECF0
:100C90004CEC5DE30E940F169B01AC01C801B7014B
:100CA0000E9461137B018C0160913901772767FDF8
:100CB000709560537040882777FD8095982F0E942B
:100CC0007E142AE037ED43E25CE30E940F169B019D
:100CD000AC01C801B7010E9461137B018C016091D6
:100CE0003A01772767FD709560537040882777FD3C
:100CF0008095982F0E947E142FE632E143E85AE354
:100D00000E940F169B01AC01C801B7010E9461133C
:100D10007B018C0160913B01772767FD70956053E3
:100D20007040882777FD8095982F0E947E1427E1D8
:100D300037EB41ED58E30E940F169B01AC01C8014F
:100D4000B7010E94611320E030E040E752E40E94C6
:100D5000E3137B018C016091320124E66202B00151
:100D60001124605C7241882777FD8095982F0E943E
:100D70007E149B01AC01C801B7010E9461137B0185
:100D80008C01609133012AE06202B0011124605E9F
:100D90007140882777FD8095982F0E947E149B01D3
:100DA000AC01C801B7010E9461137B018C01609105
:100DB0003401772767FD709560537040882777FD71
:100DC0008095982F0E947E149B01AC01C801B70149
:100DD0000E9461139B01AC0160931A0270931B0285
:100DE00080931C0290931D0280913D01873559F438
:100DF000DA01C901B05880931A0290931B02A093A4
:100E00001C02B0931D021F910F91FF90EF90089567
:100E1000EF92FF920F931F9308C00E94790484E120
:100E200091E00E947C018093340280911701873405
:100E3000A1F780911801873481F7809119018134DD
:100E400061F760912801772767FD709560537040C6
:100E5000882777FD8095982F0E947E1420E030E04F
:100E600040E251E40E940F167B018C016091290140
:100E7000772767FD709560537040882777FD8095D0
:100E8000982F0E947E149B01AC01C801B7010E94FB
:100E900061137B018C0160912B01772767FD7095B1
:100EA00060537040882777FD8095982F0E947E14AC
:100EB0002DEC3CEC4CEC5DE30E940F169B01AC0169
:100EC000C801B7010E9461137B018C0160912C0164
:100ED000772767FD709560537040882777FD809570
:100EE000982F0E947E142AE037ED43E25CE30E94D3
:100EF0000F169B01AC01C801B7010E9461137B0171
:100F00008C0160912D01772767FD709560537040CB
:100F1000882777FD8095982F0E947E142FE632E176
:100F200043E85AE30E940F169B01AC01C801B701C8
:100F30000E9461137B018C0160912E01772767FD70
:100F4000709560537040882777FD8095982F0E9498
:100F50007E1427E137EB41ED58E30E940F169B0109
:100F6000AC01C801B7010E94611320E030E040E706
:100F700052E40E94E3137B018C01609126012AE078
:100F80006202B0011124605E7140882777FD809570
:100F9000982F0E947E149B01AC01C801B7010E94EA
:100FA00061137B018C0160912701772767FD7095A4
:100FB00060537040882777FD8095982F0E947E149B
:100FC0009B01AC01C801B7010E9461136093160236
:100FD0007093170280931802909319021F910F913A
:100FE000FF90EF90089508C00E94790484E191E099
:100FF0000E947C0180933402809117018734A1F70D
:1010000080911801873481F780911901813461F74B
:1010100080911C01992787FD9095805192402091E5
:101020001B014AE0240290011124820F931F909328
:1010300008028093070280911E01992787FD9095F1
:101040008051924020911D01240290011124820FB1
:10105000931F909338028093370280912001992743
:1010600087FD90958051924020911F0124029001AC
:101070001124820F931F90931301809312010895FE
:101080004F925F926F927F928F929F92AF92BF9298
:10109000CF92DF92EF92FF920F931F93DF93CF9344
:1010A000CDB7DEB76F970FB6F894DEBF0FBECDBFDA
:1010B0000E94A80B1EE0FE013496DF01812F1D92D5
:1010C0008A95E9F783E08F8383E99BE09D878C878E
:1010D0008DE99BE09F878E87F0933C02E0933B0273
:1010E000F0933A02E09339020E94470BFE01729698
:1010F000DF011D921A95E9F782E08D8B82E89AE074
:101100009B8F8A8F0E942E0B08C00E94790484E175
:1011100091E00E947C018093340280911701873412
:10112000A1F780911801873481F7809119018134EA
:1011300061F700D000D088E891E0EDB7FEB7928368
:10114000818304E111E0148303830E941F1910922C
:10115000070110920601F80140E050E060E070E005
:1011600020E030E00F900F900F900F900CC0808126
:101170008C3231F44630510509F4B9014F5F5F4FAD
:101180002F5F3F4F31962436310588F330930701A6
:10119000209306018B010C5E1E4F0EC00E942E0B89
:1011A00083E791E00E94870A0E946F0A8FE591E031
:1011B0000E94870A0E947904D8018C91803371F3D0
:1011C00067E4562E51E4452E3E010894611C711CC3
:1011D0008E010E5E1F4F4AE4842E41E0942E35E3CB
:1011E000A32E31E0B32E25E2C22E21E0D22E97E1CC
:1011F000E92E91E0F92E0E94790484E191E00E94A9
:101200007C018093340259825A824B82C3010E942E
:10121000C3010E9408070E94F6050E94CC04909327
:10122000FB018093FA010E94F3070E94E6010E94ED
:101230002E0BEDB7FEB73A970FB6F894FEBF0FBE70
:10124000EDBF3196ADB7BEB712961C930E931197B2
:1012500093828282809113029091140295838483F9
:101260008091370290913802978386838091120192
:1012700090911301918780870E94D618EDB7FEB731
:101280003A960FB6F894FEBF0FBEEDBF0E94740AE7
:101290008DB79EB70C970FB6F8949EBF0FBE8DBF4B
:1012A000EDB7FEB73196ADB7BEB712961C930E934D
:1012B0001197B382A2828091160290911702A09199
:1012C0001802B091190284839583A683B783809115
:1012D0001A0290911B02A0911C02B0911D028087FE
:1012E0009187A287B3870E94D618EDB7FEB73C96C8
:1012F0000FB6F894FEBF0FBEEDBF0E946F0A8DB708
:101300009EB708970FB6F8949EBF0FBE8DBFEDB77E
:10131000FEB73196ADB7BEB712961C930E931197D8
:10132000D382C28280912C0290912D02A0912E0234
:10133000B0912F0284839583A683B7830E94D61829
:10134000EDB7FEB738960FB6F894FEBF0FBEEDBFEF
:101350000E946A0A8DB79EB708970FB6F8949EBF91
:101360000FBE8DBFEDB7FEB73196ADB7BEB71296C3
:101370001C930E931197F382E28280910E0190915B
:101380000F01A0911001B091110184839583A68370
:10139000B7830E94D618EDB7FEB738960FB6F8940B
:1013A000FEBF0FBEEDBF27CFDF93CF93CDB7DEB724
:1013B0002E970FB6F894DEBF0FBECDBF1092C500BA
:1013C0008FEB8093C40088E18093C10086E0809316
:1013D000C20083E99BE06DE97BE00E944818CE01E2
:1013E000019690933C0280933B0290933A02809343
:1013F00039022E960FB6F894DEBF0FBECDBFCF9147
:10140000DF91089520E030E00BC0000000000000F4
:101410000000000000000000000000002F5F3F4FB0
:101420002817390790F308950F931F93CF93DF93F5
:101430008C01C0E0D0E005C088EE93E00E94020A73
:101440002196C017D107C0F3DF91CF911F910F9163
:1014500008955F9A08955F9808959BB1937C9BB916
:101460002BB1992787FD90958F709070880F991FE9
:10147000880F991F282B2BB95E9A81E090E00E947B
:10148000020A5E9881E090E00E94020A08951F938C
:10149000182F82958F700E942D0A812F8F700E94C5
:1014A0002D0A80E590E00E94020A1F9108955F983E
:1014B000823041F0833041F0813011F480E405C086
:1014C00080E003C084E101C084E5860F80680E944B
:1014D000470A089583E060E00E94570A089582E079
:1014E00060E00E94570A089581E060E00E94570A78
:1014F000089580E060E00E94570A08955F9A0E9474
:10150000470A08950E947E0A80E090E00895CF93F4
:10151000DF93EC0105C02196F90184910E947E0AB7
:101520009E01FE0184918823B1F7DF91CF91089548
:10153000CF92DF92EF92FF920F931F93CF93DF939F
:10154000EC0197FF06C08DE20E947E0AD095C195FE
:10155000DF4F40E000E117E2EE24FF24DC2ECD2E29
:10156000CE01B8010E94E116CB016115710529F485
:10157000442319F40130110551F4805D0E947E0A64
:101580008D2D9C2DB8010E94E116EC0141E004363E
:10159000110549F4442319F480E30E947E0A8EE287
:1015A0000E947E0A41E0C8016AE070E00E94E116F4
:1015B0008B010894E11CF11C85E0E816F10471F63A
:1015C000DF91CF911F910F91FF90EF90DF90CF901F
:1015D0000895CF92DF92EF92FF920F931F93CF93D4
:1015E000DF93EC0197FF06C08DE20E947E0AD09542
:1015F000C195DF4F40E000E117E2EE24FF24DC2E2E
:10160000CD2ECE01B8010E94E116CB016115710506
:1016100029F4442319F40130110551F4805D0E942E
:101620007E0A8D2D9C2DB8010E94E116EC0141E04F
:10163000C8016AE070E00E94E1168B010894E11C89
:10164000F11C85E0E816F104D1F6DF91CF911F91EE
:101650000F91FF90EF90DF90CF9008955F9882E018
:101660000E94470A82E390E00E94140A08955F985E
:1016700081E00E94470A82E390E00E94140A82E01F
:101680000E94470A82E390E00E94140A08958AB1FA
:101690008C6F8AB984E690E00E94140A5F9883E018
:1016A0000E942D0A86E090E00E94140A83E00E94C6
:1016B0002D0A8AEF90E00E94020A83E00E942D0A20
:1016C0008AEF90E00E94020A82E00E942D0A88E2DE
:1016D0000E94470A8CE00E94470A81E00E94470A64
:1016E00085E090E00E94140A8CE00E94470A86E0A0
:1016F0000E94470A84E10E94470A0E94370B08951E
:10170000982F8091C00085FFFCCF9093C60008956C
:101710008091C000807808958091C00087FFFCCF41
:101720008091C6000895982F8091C00085FFFCCF5E
:101730009093C60080E090E008958091C00087FFFC
:10174000FCCF2091C600332727FD3095C9010895AD
:101750001092C5008FEB8093C40088E18093C10094
:1017600086E08093C20083E99BE06DE97BE00E9404
:1017700048180895A1E1B0E0E0ECFBE00C940817F4
:101780003C017F876E876A01FC0117821682838184
:1017900081FD03C06FEF7FEF6FC39E012F5F3F4F4F
:1017A000398B288BF3012381EE85FF8523FD8591FD
:1017B00023FF8191FF87EE87882309F45AC385327E
:1017C00051F4EE85FF8523FD859123FF8191FF87ED
:1017D000EE87853229F490E0B3010E94F318E2CF3E
:1017E000982F10E0882499241032B0F49B3269F0CD
:1017F0009C3228F4903251F0933271F40BC09D3238
:1018000039F0903349F4116028C01260146025C08B
:10181000186023C0106121C017FD2AC0892F805392
:101820008A3078F416FF06C0FAE09F9E902C1124AF
:10183000980E13C03AE0839E802C1124880E10620B
:101840000CC09E3221F416FD14C3106406C09C36F1
:1018500011F4106802C0983659F4EE85FF8523FD17
:10186000959123FF9191FF87EE87992309F0BCCFD3
:10187000892F8554833020F4812F8061905E07C0CA
:10188000892F8556833008F09FC1812F8F7E86FD7A
:1018900002C076E0972E6FE3F62EF822953619F403
:1018A000F0E4FF2A07C0963619F420E8F22A02C0B5
:1018B00091109A94F7FE0AC03BE3391518F45CE3E3
:1018C000B52E02C0B92CB39427E009C047E04915F2
:1018D00020F4BB2447E0942EF7CF292DBB24C6016A
:1018E00004969D878C87F601608171818281938146
:1018F000AE014F5F5F4F0B2D0E943F176C010981B6
:10190000202E332400FF04C003FD02C01DE209C0E5
:10191000F1FE02C01BE205C0F2FC02C010E001C0F3
:1019200010E2C1018C709070892BB9F1112311F470
:1019300083E001C084E0881510F088240AC0881A6A
:10194000F3FC07C080E290E0B3010E94F3188A9490
:10195000C9F7112329F0812F90E0B3010E94F318F9
:1019600023FE03C002EC10E00EC006EC10E00BC03A
:10197000E114F10409F0805290E0B3010E94F318E1
:101980000F5F1F4F05C0EF2CFF24F0E1EF22FF2473
:10199000F8018491882361F714C1F7FE12C0BC0CD2
:1019A00024FE04C08A81813309F4BA941B141CF00C
:1019B000BB24B3942DC0F8E0FB1550F538E0B32EEE
:1019C00027C0F6FC25C0892D90E08C159D054CF0B4
:1019D0002CEFC2162FEFD20624F030E8F32A01C014
:1019E0009A94992049F0E2E0F0E0EC0FFD1FE90D38
:1019F000F11D80818033A1F3F7FE0AC0B92CB394A6
:101A0000892D90E0C816D90614F0992401C09C18BD
:101A1000F7FC03C025E030E009C01C141D041CF0D5
:101A200021E030E003C096012F5F3F4F112311F0FA
:101A30002F5F3F4F992029F0892D90E00196280FC4
:101A4000391F882D90E02817390714F0882401C029
:101A5000821A4F2C5524C20189709070892B39F05D
:101A600008C080E290E0B3010E94F3188A948820B5
:101A7000C1F7112329F0812F90E0B3010E94F318E0
:101A800043FE07C008C080E390E0B3010E94F31852
:101A90008A948820C1F7F7FE46C08601D7FE02C0AF
:101AA00000E010E076010894E11CF11CE01AF10A54
:101AB00041E050E04C0F5D1FE40EF51E26014B186F
:101AC0005108892D90E0AA24BB24A81AB90A5FEF17
:101AD0000F3F150729F48EE290E0B3010E94F3183E
:101AE000C016D10634F0401651061CF4F70180816F
:101AF00001C080E3015010400894E11CF11C0A155C
:101B00001B052CF090E0B3010E94F318E0CF0C15F8
:101B10001D0539F49A81963318F4953311F424FE97
:101B200081E390E04BC08A81813309F00F7E90E021
:101B3000B3010E94F3189920A1F08EE290E0B30166
:101B40000E94F31812E0E1E0F0E0EC0FFD1FE10F5E
:101B5000F11D1F5F808190E0B3010E94F3189A94F9
:101B600091F744FC03C085E690E002C085E490E074
:101B7000B3010E94F318D7FC05C0C114D10441F48D
:101B800004FF06C0D094C194D108D3948DE201C063
:101B90008BE290E0B3010E94F31880E305C08F5FF1
:101BA00026EF3FEFC20ED31E3AE0C316D104BCF7B6
:101BB00090E0B3010E94F318C601C096B3010E94E1
:101BC000F318CC84DD8452C1933631F0933799F009
:101BD000933509F059C023C0F601808189835E01E5
:101BE0000894A11CB11C22E030E0C20ED31E21E0FB
:101BF000E22EF12C12C0F601A080B18016FD03C0C8
:101C00006FEF7FEF02C0692D70E022E030E0C20E7E
:101C1000D31EC5010E943D187C011F7713C0F60139
:101C2000A080B18016FD03C06FEF7FEF02C0692D69
:101C300070E022E030E0C20ED31EC5010E943218CF
:101C40007C01106813FF07C01BC080E290E0B30165
:101C50000E94F3188A94882D90E0E816F906A8F3FC
:101C60000FC0F50117FD859117FF81915F0190E08D
:101C7000B3010E94F31881108A940894E108F108D6
:101C8000E114F10471F7F2C0943611F0993689F538
:101C900017FF08C0F601208131814281538184E021
:101CA00090E00AC0F601808191819C01442737FDB4
:101CB0004095542F82E090E0C80ED91E9FE6F92E81
:101CC000F12257FF09C050954095309521953F4F1F
:101CD0004F4F5F4F90E8F92ACA01B901AE014F5F3B
:101CE0005F4F2AE030E00E945F19E82EE889EE1A83
:101CF00041C0953721F41F7E2AE030E01CC0197FD7
:101D00009F3661F0903720F4983509F0B2C00FC0CB
:101D1000903739F0983709F0ACC004C028E030E0C3
:101D20000AC0106114FD146020E130E004C014FD0D
:101D3000166020E132E017FF08C0F6016081718172
:101D40008281938144E050E008C0F6018081918156
:101D5000BC0180E090E042E050E0C40ED51EAE0130
:101D60004F5F5F4F0E945F19E82E5889E51A8FE791
:101D7000F82EF122F6FE0BC08EEFF822E91438F4AB
:101D8000F4FE07C0F2FC05C09FEEF92202C01E2D32
:101D900001C0192DF4FE0DC0FE01EE0DF11D808174
:101DA000803319F4E9EEFE2208C01F5FF2FE05C081
:101DB00003C08F2D867809F01F5F0F2DF3FC14C030
:101DC000F0FE0FC0181510F09E2C0BC09E2C980C26
:101DD000911A182D06C080E290E0B3010E94F3181A
:101DE0001F5F1815C0F304C0181510F4811A01C044
:101DF000882404FF0FC080E390E0B3010E94F31831
:101E000002FF1DC001FD03C088E790E00EC088E519
:101E100090E00BC0802F867891F001FF02C08BE22A
:101E200001C080E2F7FC8DE290E0B3010E94F3185C
:101E300006C080E390E0B3010E94F3189A94E9147D
:101E4000C0F3EA94E1E0F0E0EC0FFD1FEE0DF11DB0
:101E5000808190E0B3010E94F318EE2091F706C054
:101E600080E290E0B3010E94F3188A948820C1F7C1
:101E700099CCF30166817781CB016196E2E10C9404
:101E80002417FC0120FD08C023FD05C022FF02C06D
:101E900073836283518340830895EF92FF920F937F
:101EA0001F9344FF02C033E011C046FF02C034E07C
:101EB0000DC0DB01FC01AA0FBB1FEE1FFF1F10941A
:101EC000D1F76A0F7B1F8E1F9F1F31E0660F771FB0
:101ED000881F991F3150D1F77B018C01E20EF11C54
:101EE000011D111DA8019701B701CA011F910F9192
:101EF000FF90EF9008950F931F93CF93DF938C0182
:101F0000C8010E949418EC0197FD08C00E941718A0
:101F1000892BB1F7CE01B8010E944519CE01DF919E
:101F2000CF911F910F9108958F929F92AF92BF9280
:101F3000DF92EF92FF920F931F93CF93DF935C0199
:101F4000EB014A01122F0E949418AC018B3219F058
:101F50008D3251F41068219709F46DC0C5010E94BB
:101F60009418AC0197FD67C06DEFD62ED1228D2D50
:101F7000807301F54033F1F4219709F447C0C5019E
:101F80000E949418AC0197FD41C082E0D82A4837DE
:101F900011F0483559F480E4D82A2197B9F1C501E8
:101FA0000E949418AC0199232CF430C0D6FC02C0D6
:101FB00080E1D82AEE24FF248701242F20532830E3
:101FC00088F0D4FC09C02A3068F0D6FE05C02F7D09
:101FD000822F8151863028F0CA01B5010E9445192F
:101FE00012C02750C801B7014D2D0E944D0F7B0133
:101FF0008C0182E0D82A219761F0C5010E949418D3
:10200000AC0197FFDACFD1FC04C015C0EE24FF2449
:102010008701D7FE08C010950095F094E094E11C6C
:10202000F11C011D111DC401B801A7012D2D0E9435
:10203000410F81E001C080E0DF91CF911F910F91AE
:10204000FF90EF90DF90BF90AF909F908F9008959A
:10205000A0E2B0E0EEE2F0E10C940C175C016B0141
:102060008A017901FE01319680E2DF011D928A9595
:10207000E9F770E030E060E040E050E03F01A1E0CF
:10208000B0E0F5018381F70183FD259183FF219164
:102090007F01222309F481C02E3519F44115510521
:1020A00069F1872F90E08417950744F42D3551F19D
:1020B0002D3221F4332329F431E021C0332309F4F4
:1020C000622F322F832F869586958695F301E80F30
:1020D000F11D832F87704D0102C0880C991C8A95D1
:1020E000E2F7208128292083361711F430E007C059
:1020F000361710F43F5FE6CF3150E4CF71E04F5F09
:102100005F4FBFCF332319F08E8180628E83772398
:1021100059F0FE0131969E012F5D3F4F80818095E1
:102120008193E217F307D1F7992493943E01089421
:10213000611C711CC5010E949418AC0197FD25C05B
:10214000869586958695F301E80FF11D808190E0D4
:102150009A012770307002C0959587952A95E2F70D
:1021600080FD05C0CA01B5010E9445190EC00115C8
:10217000110519F0D8014D938D010894C108D108BB
:102180009924C114D104B1F602C0992031F401158B
:10219000110529F0F801108202C0EE24FF24C701C6
:1021A000A096EEE00C9428172F923F925F926F92C8
:1021B0007F928F929F92AF92BF92CF92DF92EF92D7
:1021C000FF920F931F93CF93DF933C017B011A0182
:1021D0000E949418EC018B3239F08D3211F05524A5
:1021E00011C0B0E85B2E01C055240894E108F10845
:1021F000E114F10409F418C1C3010E949418EC0120
:1022000097FD12C1CE010E941F188936910521F059
:102210008E36910599F51DC00FED10E01CC0089495
:10222000E108F108E114F10471F0C3010E9494186F
:10223000EC0197FD08C00E941F18D81661F0CE016E
:10224000B3010E94451920E0023E120709F0ECC0DC
:1022500008C00CED10E0F8010F5F1F4FD490DD2097
:10226000F1F60F5D104029F080E090E0A0E8BFE7B4
:10227000CFC080E090E0A0ECBFE7CAC0CC24DD2452
:10228000882499245401AE014053242F4A3038F554
:1022900052E0552A852D90E0AC014870507052FEF6
:1022A00006C0452B11F50894C11CD11C1EC0452B3E
:1022B00019F00894C108D108C501B40140E20E9498
:1022C0004D0F4B015C0188E9881689E9980689E978
:1022D000A80689E1B80648F094E0592A06C04E3FA6
:1022E00081F453FC0EC0E8E05E2A0894E108F1088E
:1022F000E114F10431F0C3010E949418EC0197FF3E
:10230000C2CF51FE91C0C53619F0C53409F046C0A0
:102310000894E108F108E114F10409F485C0C3014F
:102320000E949418EC0197FD7FC08B3221F08D3212
:1023300069F4F0E15F2A0894E108F108E114F1047E
:1023400009F472C0C3010E949418EC01CE01C09739
:102350000A9708F069C000E010E0B801882777FD0F
:102360008095982FAE014053242F40E20E944D0FDC
:102370008B010894E108F108E114F10439F0C3017C
:102380000E949418EC01C0970A9738F3B80154FEE4
:1023900003C0709561957F4FC60ED71EEF2831F0B0
:1023A000D7FD04C0CE01B3010E944519C501B40197
:1023B0000E947C14D7FE0DC0ABEFEA2EA0E0FA2EEF
:1023C000D094C194D108D394C0E2D0E000E010E0F2
:1023D0000EC0F3E1EF2EF1E0FF2EF6CFF7012591CD
:1023E0003591459154910E940F16CC1ADD0ACC16F6
:1023F000DD06A0F7D695C7950F5F1F4F0630110574
:1024000029F0ECEFFFEFEE0EFF1EF1CFDC01CB0168
:1024100057FCB0582114310429F0F10180839183D5
:10242000A283B38381E001C080E0DF91CF911F914F
:102430000F91FF90EF90DF90CF90BF90AF909F9063
:102440008F907F906F905F903F902F900895A0E0C5
:10245000B0E0EDE2F2E10C940B174C015B013A01A4
:10246000FC0117821682552404C1812F90E00E943E
:102470001718892B21F0C4010E947B0FFAC0153276
:1024800049F4F501F3FC6591F3FE61915F0165325A
:1024900069F415E2C4010E94941897FDF6C018175C
:1024A00009F4E7C0B4010E944519F4C06A3219F07A
:1024B000162F00E006C0F3FC1591F3FE11915F01A9
:1024C00001E0CC24DD240EC00260B60180E090E083
:1024D00040E20E944D0F6B01F501F3FC1591F3FEF4
:1024E00011915F01212F20532A3070F301FD04C0A8
:1024F000CC24CA94DC2C04C0C114D10409F4CAC091
:10250000183621F01C3699F4F5010BC0F501F3FCE7
:102510006591F3FE6191683619F05F01162F07C0CF
:1025200008600460F3FC1591F3FE11915F01112323
:1025300009F4B0C08AEC90E0612F70E00E94271887
:10254000892B09F4A7C0802F00FF03C0EE24FF24CD
:1025500007C0F301E080F18022E030E0620E731EDC
:102560001E3651F4F4014681578160E070E0C701E6
:10257000202F0E94410F7DC01336B9F481FD03C0A6
:1025800081E0C82ED12CC4010E94941897FD7DC013
:10259000E114F10419F0F70181937F010894C10857
:1025A000D108C114D10479F762C01B3559F4C401B4
:1025B000B601A70195010E9428105C01009709F05F
:1025C00056C050C0C4010E947B0F97FD5EC01F36ED
:1025D000D1F1103738F41436A1F11936A9F11835B4
:1025E000D1F52DC0133751F0143718F4103799F581
:1025F00026C0153731F1183771F521C0C4010E948A
:102600009418EC0197FD15C00E941718892B29F02A
:10261000CE01B4010E9445190CC0E114F10419F077
:10262000F701C1937F010894C108D108C114D104F6
:1026300029F7E114F104D9F0F701108218C0006401
:1026400003C0006201C00061C401B601A701202FD0
:102650000E94940F05C0C401B601A7010E94D410C6
:10266000882329F4F4018381807379F413C000FF77
:102670005394F401F380F501F3FC1591F3FE1191ED
:102680005F01112309F0F1CE05C0552019F42FEF99
:102690003FEF02C0252D30E0C901CDB7DEB7EFE036
:1026A0000C9427179F939F7777D10F9000203AF4CF
:1026B0009058A2EA2AED3FE049E450E413D049C221
:1026C0005058BB27AA270ED044C20DD230F012D2E8
:1026D00020F031F49F3F11F41EF4CCC10EF4E095CC
:1026E000E7FB99C1E92F57D280F3BA176207730746
:1026F0008407950718F071F49EF586C20EF4E095F4
:102700000B2EBA2FA02D0B01B90190010C01CA01AB
:10271000A0011124FF27591B99F0593F50F4503E56
:1027200068F11A16F040A22F232F342F4427585F48
:10273000F3CF469537952795A795F0405395C9F760
:102740007EF41F16BA0B620B730B840BBAF0915018
:10275000A1F0FF0FBB1F661F771F881FC2F70EC0B7
:10276000BA0F621F731F841F48F48795779567958A
:10277000B795F7959E3F08F0B3CF9395880F08F073
:102780009927EE0F9795879508959F939F77EEE38E
:1027900089379E0720F4E8E6F0E094D109C0FCD028
:1027A0009058A2EA2AED3FE049EC5FE39BDFD1D1EC
:1027B0000F9007FC905808950AD108F481E008951D
:1027C000A1D1E395D7C10CD0C4C194D140F08BD135
:1027D00030F021F45F3F19F01EC1511116C24AC1F9
:1027E000DAD198F39923C9F35523B1F3951B550B0F
:1027F000BB27AA2762177307840738F09F5F5F4FD4
:10280000220F331F441FAA1FA9F333D00E2E3AF014
:10281000E0E830D091505040E695001CCAF729D02E
:10282000FE2F27D0660F771F881FBB1F261737077D
:102830004807AB07B0E809F0BB0B802DBF01FF27AD
:1028400093585F4F2AF09E3F510568F0E4C0DDC108
:102850005F3FECF3983EDCF3869577956795B795E7
:10286000F7959F5FC9F7880F911D9695879597F902
:102870000895E1E0660F771F881FBB1F621773077B
:102880008407BA0720F0621B730B840BBA0BEE1F90
:1028900088F7E095089504D06894B111B6C1089501
:1028A00082D188F09F5790F0B92F9927B751A0F0A7
:1028B000D1F0660F771F881F991F1AF0BA95C9F7D4
:1028C00012C0B13081F0A0D1B1E008959DC1672F51
:1028D000782F8827B85F39F0B93FCCF38695779584
:1028E0006795B395D9F73EF490958095709561956D
:1028F0007F4F8F4F9F4F0895E89409C097FB3EF498
:1029000090958095709561957F4F8F4F9F4F99233C
:10291000A9F0F92F96E9BB279395F69587957795BA
:102920006795B795F111F8CFFAF4BB0F11F460FF7A
:102930001BC06F5F7F4F8F4F9F4F16C0882311F0D2
:1029400096E911C0772321F09EE8872F762F05C0E6
:10295000662371F096E8862F70E060E02AF09A9581
:10296000660F771F881FDAF7880F9695879597F976
:10297000089533D180F09F3740F491110EF045C196
:1029800060E070E080E89FEB089526F41B16611D5F
:10299000711D811D46C060C0DF93CF931F930F93BD
:1029A0008B01EC01ECE7F0E068D0D3D09801AE01E8
:1029B0008B01EC0160E070E080E89FE381DEBCD138
:1029C0009801AE010F911F91CF91DF9134C1990F02
:1029D0000008550FAA0BE0E8FEEF16161706E807E9
:1029E000F907C0F012161306E407F50798F0621B0A
:1029F000730B840B950B39F40A2661F0232B242BDF
:102A0000252B21F408950A2609F4A140A6958FEFFD
:102A1000811D811D089597F99F6780E870E060E04F
:102A20000895882371F4772321F09850872B762F0F
:102A300007C0662311F499270DC09051862B70E0D2
:102A400060E02AF09A95660F771F881FDAF7880FE3
:102A50009695879597F908959F3F31F0915020F40E
:102A6000879577956795B795880F911D969587956A
:102A700097F908959FEF80EC0895DF93CF931F930C
:102A80000F93FF92EF92DF927B018C01689405C057
:102A9000DA2EEF01D0D0FE01E894A5912591359171
:102AA00045915591AEF3EF011DDEFE019701A8019E
:102AB000DA9479F7DF90EF90FF900F911F91CF910B
:102AC000DF9108959F938F937F936F93FF93EF937D
:102AD0009B01AC01A4D0EF91FF91CFDF2F913F91EB
:102AE0004F915F919CC000240A9416161706180691
:102AF0000906089500240A94121613061406050602
:102B00000895B8CF50D0E8F3E894E0E0BB279F5792
:102B1000F0F02AED3FE049EC06C0EE0FBB0F661F58
:102B2000771F881F28F0B23A62077307840728F0DE
:102B3000B25A620B730B840BE3959A9572F7803847
:102B400030F49A95BB0F661F771F881FD2F7904805
:102B500085CF092E0394000C11F4882352F0BB0F8B
:102B600040F4BF2B11F460FF04C06F5F7F4F8F4FA5
:102B70009F4F0895EF93E0FF06C0A2EA2AED3FE0E1
:102B800049EC5FEBAFDDE5DF0F90039401FC90585B
:102B9000E4EAF0E097CF57FD9058440F551F59F0E5
:102BA0005F3F71F04795880F97FB991F61F09F3F3A
:102BB00079F087950895121613061406551FF2CF63
:102BC0004695F1DF08C0161617061806991FF1CFB3
:102BD00086957105610508940895E5DFA0F0BEE7CC
:102BE000B91788F4BB279F3860F41616B11D672FFC
:102BF000782F8827985FF7CF869577956795B11DD1
:102C000093959639C8F30895E894BB2766277727EC
:102C1000CB0197F90895DBDE08F48FEF08950BD010
:102C200098CF61DF28F066DF18F0952309F0F3CE26
:102C300021CF1124EACFAFDFA0F3959FD1F3950FF9
:102C400050E0551F629FF001729FBB27F00DB11D30
:102C5000639FAA27F00DB11DAA1F649F6627B00DC0
:102C6000A11D661F829F2227B00DA11D621F739FA9
:102C7000B00DA11D621F839FA00D611D221F749FB7
:102C80003327A00D611D231F849F600D211D822FFE
:102C9000762F6A2F11249F5750408AF0E1F0882345
:102CA0004AF0EE0FFF1FBB1F661F771F881F915052
:102CB0005040A9F79E3F510570F0ADCEA6CF5F3FC3
:102CC000ECF3983EDCF3869577956795B795F79585
:102CD000E7959F5FC1F7FE2B880F911D969587950D
:102CE00097F9089560DFE0F09E37D8F09639B8F490
:102CF0009E3848F4672F782F8827985FF9CF8695FC
:102D00007795679593959539D0F3B62FB1706B0F82
:102D1000711D811D20F4879577956795939581CED8
:102D20009BCE73CF9F93EEDE0F9007FCEE5F22CF1A
:102D300011F40EF49FCE90CE36DFD0F39923D9F361
:102D4000CEF39F57550B87FF35D00024A0E640EA0D
:102D5000900180585695979528F4805C660F771FF0
:102D6000881F20F026173707480730F4621B730BC3
:102D7000840B202931294A2BA695179407942025E6
:102D800031254A2758F7660F771F881F20F026172E
:102D90003707480730F4620B730B840B200D311D8D
:102DA000411DA09581F7B901842F9158880F969500
:102DB0008795089591505040660F771F881FD2F76E
:102DC0000895AA1BBB1B51E107C0AA1FBB1FA61772
:102DD000B70710F0A61BB70B881F991F5A95A9F7C4
:102DE00080959095BC01CD01089597FB092E07268B
:102DF0000AD077FD04D0E5DF06D000201AF47095E4
:102E000061957F4F0895F6F7909581959F4F0895AE
:102E10002F923F924F925F926F927F928F929F92EA
:102E2000AF92BF92CF92DF92EF92FF920F931F93D8
:102E3000CF93DF93CDB7DEB7CA1BDB0B0FB6F89489
:102E4000DEBF0FBECDBF09942A88398848885F84C9
:102E50006E847D848C849B84AA84B984C884DF803A
:102E6000EE80FD800C811B81AA81B981CE0FD11D1E
:102E70000FB6F894DEBF0FBECDBFED010895283028
:102E800008F027E03327DA01990F311D87FD9160A3
:102E900000966105710539F432602E5F3D9330E391
:102EA0002A95E1F708959F3F30F08038710561055C
:102EB00009F03C5F3C5F3D93913008F08068911DC4
:102EC000DF93CF931F930F93FF92EF92192F987F69
:102ED0009695E92F96959695E90FFF27E951FE4FB4
:102EE00099273327EE24FF24A701E70105900894D2
:102EF000079428F4360FE71EF81E491F511D660F70
:102F0000771F881F991F0694A1F70590079428F44E
:102F1000E70EF81E491F561FC11D770F881F991F06
:102F2000661F0694A1F70590079428F4F80E491F30
:102F3000561FC71FD11D880F991F661F771F069444
:102F4000A1F70590079420F4490F561FC71FD81FFB
:102F5000990F661F771F881F0694A9F78491109513
:102F6000177041F0D695C79557954795F794E79414
:102F70001A95C1F7EDE8F1E0689415901591359137
:102F80006591959105907FE27395E118F10A430BE5
:102F9000560BC90BD009C0F7E10CF11E431F561F99
:102FA000C91FD01D7EF4703311F48A95E6CFE894E2
:102FB000015030F0080F0AF40027021708F4202F00
:102FC0002395022F7A3328F079E37D932A95E9F748
:102FD00010C07D932A9589F6069497956795379545
:102FE00017951794E118F10A430B560BC90BD0093A
:102FF00098F023957E9173957A3308F070E37C9373
:103000002013B8F77E9170617D9330F0839571E362
:103010007D9370E32A95E1F71124EF90FF900F91D3
:103020001F91CF91DF91992787FD90950895911178
:10303000C5C2803219F089508550D0F7089591119A
:10304000089581548A5108F4805E855A0895FC01E0
:103050000590061621F00020D9F7C0010895319798
:10306000CF010895FC010590615070400110D8F720
:10307000809590958E0F9F1F0895FC0161507040C0
:1030800001900110D8F7809590958E0F9F1F08959D
:103090000F931F93CF93DF938C01EB01009731F4D3
:1030A0006115710519F420E030E038C081E090E04E
:1030B0006EE070E00E94BD19FC019C01009771F167
:1030C00080E88383209771F0D387C28781E8838368
:1030D0008091390290913A02892B21F4F0933A02BF
:1030E000E093390201151105C9F01187008783812A
:1030F0008260838380913B0290913C02892B71F422
:10310000F0933C02E0933B0280913D0290913E029D
:10311000892B21F4F0933E02E0933D02C901DF9137
:10312000CF911F910F910895CF93DF93EC014B81C5
:1031300040FF1AC046FF0AC04F7B4B838E819F81A0
:1031400001969F838E838A81282F2BC042FF13C054
:10315000E881F9818081282F332727FD30952115BB
:10316000310529F440624B832FEF3FEF1BC03196AE
:10317000F983E88311C0EA85FB85CE0109959C019E
:1031800097FF0AC09B812F5F3F4F11F080E201C083
:1031900080E1892B8B83E8CF8E819F8101969F836D
:1031A0008E8330E0C901DF91CF910895A0E0B0E0B7
:1031B000ECEDF8E10C9416170F8118859E01255F40
:1031C0003F4FF801838188608383C80169857A85D0
:1031D000A9010E94BA0BF8012381277F238320963F
:1031E000E4E00C9432170F931F93CF93DF938C017D
:1031F000EB018B8181FF1BC082FF0DC02E813F81BF
:103200008C819D812817390764F4E881F981019345
:10321000F983E88306C0E885F985802F0995892B15
:1032200031F48E819F8101969F838E8302C00FEFC0
:103230001FEFC801DF91CF911F910F910895A0E07A
:10324000B0E0E5E2F9E10C941817FE0135966191C2
:103250007191A0913B02B0913C0213968C9113970F
:10326000886013968C9380913B0290913C02AF0151
:103270000E94BA0BE0913B02F0913C022381277F30
:1032800023832096E2E00C9434179C01FB01838198
:1032900080FF11C086FD0FC09FEF2F3F390759F007
:1032A000228380648F7D83838681978101979783B2
:1032B000868330E002C02FEF3FEFC9010895FA0185
:1032C000AA27283051F1203181F1E8946F936E7F65
:1032D0006E5F7F4F8F4F9F4FAF4FB1E03ED0B4E056
:1032E0003CD0670F781F891F9A1FA11D680F791F97
:1032F0008A1F911DA11D6A0F711D811D911DA11DA8
:1033000020D009F468943F912AE0269F11243019B7
:10331000305D3193DEF6CF010895462F4770405D52
:103320004193B3E00FD0C9F7F6CF462F4F70405D01
:103330004A3318F0495D31FD4052419302D0A9F75C
:10334000EACFB4E0A6959795879577956795BA9556
:10335000C9F700976105710508959B01AC010A2E1C
:1033600006945795479537952795BA95C9F7620FF3
:10337000731F841F951FA01D08950F931F93CF9354
:10338000DF93689F8001699F100D789F100D1124B5
:10339000C8010E94D919EC01009729F060E070E0A3
:1033A000A8010E94E11ACE01DF91CF911F910F91E8
:1033B0000895CF93DF93BC018230910510F462E051
:1033C00070E0A0914102B0914202ED01E0E0F0E036
:1033D00040E050E021C0888199818617970769F401
:1033E0008A819B81309719F09383828304C09093E4
:1033F000420280934102FE0134C06817790738F415
:103400004115510519F08417950708F4AC01FE0128
:103410008A819B819C01E9012097E9F641155105BC
:10342000A9F1CA01861B970B049708F4BA01E0E0E2
:10343000F0E02AC08D919C91119784179507F9F4BB
:103440006417750781F412968D919C9113973097AC
:1034500019F09383828304C09093420280934102C7
:10346000FD0132964FC0CA01861B970BFD01E80F84
:10347000F91F6193719302978D939C9343C0FD0153
:10348000828193819C01D9011097A1F680913F021E
:1034900090914002892B41F48091020190910301A7
:1034A0009093400280933F024091040150910501A6
:1034B0004115510541F44DB75EB7809100019091DF
:1034C0000101481B590B20913F0230914002241703
:1034D0003507B0F4CA01821B930B8617970780F05B
:1034E000AB014E5F5F4F8417950750F0420F531F9B
:1034F0005093400240933F02F9016193719302C0DF
:10350000E0E0F0E0CF01DF91CF910895CF93DF931A
:10351000009709F450C0EC0122971B821A82A091F7
:103520004102B0914202109709F140E050E0AC171F
:10353000BD0708F1BB83AA83FE0121913191E20FFF
:10354000F31FAE17BF0779F48D919C911197280F47
:10355000391F2E5F3F4F3983288312968D919C919E
:1035600013979B838A834115510571F4D0934202CE
:10357000C093410220C012968D919C911397AD018A
:10358000009711F0DC01D3CFFA01D383C2832191DC
:103590003191E20FF31FCE17DF0769F4888199811B
:1035A000280F391F2E5F3F4FFA01318320838A8114
:1035B0009B8193838283DF91CF91089599278827F8
:1035C0000895DC0101C06D9341505040E0F708952B
:0435D000F894FFCF9D
:00000001FF
